:100000000C94F61F0C9427200C9427200C94272086
:100010000C9427200C9427200C9427200C947CBB54
:100020000C9427200C9427200C9427200C94272034
:100030000C9427200C9427200C9427200D94261A2A
:100040000C9427200C9427200C9427200C94272014
:100050000C9427200C9427200C9427200C946DC618
:100060000C9427200C9425BC0C9454BC0C94272091
:100070000C9427200C9427200C9427200C942720E4
:100080000C9427200C9427200C9427200C942720D4
:100090000C948FBC0C94BEBC0C9427200C947DC097
:1000A0000C9427200D94531A0C9427200C9427208D
:1000B0000C9427200C9427200D94801A0C94272050
:1000C0000C9427200C9427200C9427200C94F9BC26
:1000D0000C9428BD0C9427200C9427200C942720E6
:1000E0000C942720C32CCD2CD72CE12C1D2DEB2CD0
:1000F000F52C1D2D1D2D1D2DFF2C092D132D5C44C0
:10010000574455445C445A44554455445A445A440F
:100110005A445744574457445A445A4457445944FC
:10012000434B3A4B324B4B4B3A4B2D4B4B4B4B4B80
:100130004B4B434B434B434B4B4B4B4B434BB152C2
:10014000C156F0521B531354A35408559155F25500
:100150005256355835588B57C463DC63E363CC6320
:10016000D463EB6335641764106409641F64266408
:100170002D64FA6302644E643D645F6466646D647A
:10018000746479647F64BA76CD76D176D876DC767D
:100190007A86E0767A867A867A86E476E876EC76EF
:1001A000768E0C8E768E768E748E768EFB8D748E19
:1001B000748E748E1D8E748E648E748E748E718E99
:1001C000768E169621961696169621961696169661
:1001D0002196219621961996219619962196219677
:1001E00019961E9A059AF499E797369A7E980E9971
:1001F000369A369A369A369AE297E297369A369A2D
:10020000E297FCC2FCC201C301C301C306C306C31B
:1002100006C318C30BC30BC325C329C32FC333C3E2
:1002200037C33DC341C345C356C34BC351C389C341
:100230008DC393C397C39BC3A1C3A5C3A9C3BAC3AB
:10024000AFC3B5C3FCC301C406C40BC410C415C4FA
:100250001AC41FC42DC424C429C466C46BC470C48A
:1002600075C47AC47FC484C489C498C48EC493C43A
:100270007D1F7D1F871F6B1FAD1FD31F7F1FA51FF6
:10028000DB1F691F8F1F8F1F711F8F1F971F971FE6
:10029000971F971F971F8F1F971F971F971F971FB6
:1002A000711F711F711F711F711F036EDB363D9A25
:1002B0009999993DABAAAA2A3E000000803F084ABE
:1002C000D73B3BCE016E84BCBFFDC12F3D6C74316A
:1002D0009ABD56833DDA3D00C77F11BED9E4BB4CC1
:1002E0003E916BAAAABE000000803F07634236B76A
:1002F0009BD8A71A39685618AEBAAB558C1D3CB7B7
:10030000CC5763BD6DEDFD753EF6177231BF000031
:1003100000803F072C7AA5BA6CC590DA3B9365FC48
:100320008BBC53F810FD3C5692834DBD879D3AB669
:100330003DCBC9BF5BBE73DA0FC93F05A84CCDB238
:10034000D44EB93836A9020C50B9918688083CA61B
:10035000AAAA2ABE000000803F02005241575F5304
:10036000454E53000000000000000000680000003F
:10037000803F02014558545F53544154000000002F
:1003800000000000006A000000803F020252435F4C
:100390004348414E000000000000000000006C00D7
:1003A0000000803F02035241575F4354524C00000B
:1003B000000000000000006E000000803F020450BA
:1003C0004F534954494F4E00000000000000000008
:1003D00070000000803F0205455854524131000032
:1003E00000000000000000000072000000803F02DA
:1003F0000645585452413200000000000000000041
:10040000000074000000803F0207455854524133F9
:1004100000000000000000000000007600000080E6
:100420003F0208504152414D5300000000000000BF
:100430000000000078000000484200FF00000000BB
:1004400000000000000000000000000000000000AC
:1004500000000002464F524D41545F5645525349E9
:100460004F4E00000000D508000000000153595312
:1004700049445F53575F545950450000000001D76D
:1004800008000000000253595349445F544849533F
:100490004D41560000000070D8080000803F025314
:1004A000595349445F4D5947435300000000000031
:1004B00071DA0800007F430153455249414C305FD7
:1004C00042415544000000000074DC080000E64290
:1004D0000153455249414C335F42415544000000AD
:1004E000000072DD080000E6420154454C454D5FB6
:1004F00044454C415900000000000073DE08000034
:100500000000044B46465F50544348434F4D500053
:1005100000000000C8DF08CDCC4C3E044B46465FCF
:10052000524444524D4958000000000000C9E308FD
:100530000000003F044B46465F5054434832544845
:10054000520000000000CAE70800000000044B460B
:10055000465F54485232505443480000000000CBDC
:10056000EB0800000000014D414E55414C5F4C45E9
:1005700056454C0000000000163D09000000000137
:10058000535449434B5F4D4958494E4700000000C2
:10059000001973090000803F04544B4F46465F54D6
:1005A00048525F4D494E53504400227509000000E7
:1005B0000004544B4F46465F5448525F4D494E41EC
:1005C0004343002379090000000001544B4F464685
:1005D0005F484541445F484F4C440000247D09007A
:1005E00000803F015255444445525F5354454552A3
:1005F00000000000001E740900000000024C414E83
:10060000445F50495443485F43440000000017468C
:100610000900000000044C414E445F464C415245E5
:100620005F414C540000001B480900004040044C4E
:10063000414E445F464C4152455F534543000000E4
:100640001C4C0900000040045854524B5F4741497C
:100650004E5F5343000000000096F3080000C842BC
:10066000025854524B5F414E474C455F4344000093
:10067000000097F70800803B45015854524B5F55E6
:1006800053455F57494E44000000009FF9080000A1
:10069000803F025854524B5F4D494E5F444953547A
:1006A000000000001DFA080000484204414C545F5D
:1006B0004D49580000000000000000000083FC08C5
:1006C0000000803F01414C545F4354524C5F414C09
:1006D0004700000000007C00090000000002414CBF
:1006E000545F4F4646534554000000000000002070
:1006F0002F090000000001434D445F544F54414C0A
:100700000000000000000000DD0209000000000100
:10071000434D445F494E444558000000000000002E
:1007200000DE0309000000000257505F52414449B7
:1007300055530000000000000000DF04090000F035
:10074000410257505F4C4F495445525F524144005B
:10075000000000E00609000070420146454E434596
:100760005F414354494F4E0000000000E10809007A
:100770000000000146454E43455F544F54414C0034
:100780000000000000E20909000000000146454E9B
:1007900043455F4348414E4E454C00000000E30A8C
:1007A00009000000000246454E43455F4D494E4159
:1007B0004C540000000000E40B0900000000024659
:1007C000454E43455F4D4158414C540000000000E8
:1007D000E50D09000000000241525350445F4642BB
:1007E000575F4D494E00000000780F090000C040DF
:1007F0000241525350445F4642575F4D41580000FA
:1008000000007911090000B04101464257425F459E
:100810004C45565F524556000000007B130900000E
:10082000000001464257425F434C494D425F5241EE
:10083000544500007D140900000040015448525FF7
:100840004D494E00000000000000000000B51509F1
:1008500000000000015448525F4D41580000000064
:10086000000000000000B61609000096420154483E
:10087000525F534C4557524154450000000000BDA3
:10088000170900000000015448525F535550505F53
:100890004D414E0000000000BE180900000000019C
:1008A0005448525F504153535F535441420000003B
:1008B00000BF190900000000015448525F46414939
:1008C0004C534146450000000000B71A0900008063
:1008D0003F025448525F46535F56414C5545000015
:1008E000000000B81B0900806D44015452494D5F5F
:1008F0005448524F54544C4500000000B91D0900A3
:10090000003442015448524F54544C455F4E5544B4
:1009100047450000001F1E090000803F0146535F4D
:1009200053484F52545F4143544E00000000BA1FD9
:1009300009000000000146535F4C4F4E475F4143A2
:10094000544E0000000000BB2009000000000146DA
:10095000535F4743535F454E41424C000000000047
:10096000BC21090000000001464C544D4F44455F36
:10097000434800000000000000D2220900000041AE
:1009800001464C544D4F444531000000000000002A
:100990000000D323090000304101464C544D4F4420
:1009A0004532000000000000000000D424090000CF
:1009B000304101464C544D4F444533000000000087
:1009C00000000000D525090000004001464C544DB0
:1009D0004F444534000000000000000000D6260906
:1009E0000000004001464C544D4F44453500000086
:1009F000000000000000D727090000000001464C5D
:100A0000544D4F444536000000000000000000D85F
:100A1000280900000000024C494D5F524F4C4C5FCA
:100A2000434400000000000098290900A08C450202
:100A30004C494D5F50495443485F4D4158000000B8
:100A400000992B090080BB44024C494D5F5049542A
:100A500043485F4D494E000000009A2D0900401C9C
:100A6000C5015452494D5F4155544F0000000000EC
:100A70000000000A31090000000001454C45564FB6
:100A80004E5F4D4958494E47000000000D320900A5
:100A900000000001454C45564F4E5F5245564552A9
:100AA00053450000000E34090000000001454C458C
:100AB000564F4E5F4348315F5245560000000F3598
:100AC000090000000001454C45564F4E5F43483237
:100AD0005F52455600000010360900000000015624
:100AE0005441494C5F4F555450555400000000008C
:100AF00026330900000000025359535F4E554D5FE5
:100B000052455345545300000002370900000000CD
:100B1000024C4F475F4249544D41534B0000000087
:100B200000000B39090000A743015253545F53578B
:100B3000495443485F434800000000153B0900004A
:100B40000000015253545F4D495353494F4E5F4388
:100B5000480000001A3C0900000000035452494DAF
:100B60005F41525350445F434D000000009B3E09DB
:100B700000009644045343414C494E475F5350454F
:100B8000454400000000CCEF0800007041034D49CF
:100B90004E5F474E445350445F434D000000009E5B
:100BA000500900000000025452494D5F504954431F
:100BB000485F4344000000000C540900000000039B
:100BC000414C545F484F4C445F52544C000000006D
:100BD000009C420900401C4602414C545F484F4C67
:100BE000445F464257434D0000007A56090000001A
:100BF00000014D41475F454E41424C450000000019
:100C00000000008459090000803F01464C41505FBC
:100C1000315F504552434E5400000000115B090003
:100C200000000001464C41505F315F535045454440
:100C30000000000000125C090000000001464C4169
:100C4000505F325F504552434E5400000000135D28
:100C5000090000000001464C41505F325F5350458F
:100C600045440000000000145E090000000001423D
:100C70004154545F4D4F4E49544F52000000000004
:100C8000865A090000000004564F4C545F444956F0
:100C9000494445520000000000875F090AD76340BD
:100CA00004414D505F5045525F564F4C5400000078
:100CB00000008863095C8FDA4104414D505F4F4664
:100CC00046534554000000000000008F67090000F3
:100CD000000003424154545F434150414349545939
:100CE000000000008A6B090000DC440142415454BA
:100CF0005F564F4C545F50494E00000000A87009E9
:100D00000000803F01424154545F435552525F50AE
:100D1000494E00000000A971090000004001525333
:100D200053495F50494E000000000000000000A73A
:100D30006F09000080BF01494E5645525445444654
:100D40004C545F43480000009D7209000000000100
:100D500048494C5F534552564F5300000000000075
:100D6000002558090000000008474E445F000000BD
:100D7000000000000000000000008DB40B4B2800B4
:100D8000000843414D5F000000000000000000002B
:100D9000000000A0C908752B0000085243315F0015
:100DA000000000000000000000000000AA7E09D83A
:100DB0003B0000085243325F0000000000000000CA
:100DC0000000000000AB9B09D83B000008524333F1
:100DD0005F00000000000000000000000000ACB850
:100DE00009D83B0000085243345F000000000000B7
:100DF00000000000000000ADD509D83B00000852FB
:100E000043355F000000000000000000000000000B
:100E1000AEF2098D3B0000085243365F000000002F
:100E2000000000000000000000AF100A8D3B000031
:100E3000085243375F00000000000000000000007F
:100E40000000B02E0A8D3B0000085243385F0000BE
:100E50000000000000000000000000B14C0A8D3BC3
:100E60000000085243395F0000000000000000004D
:100E700000000000B26A0A8D3B0000085243313086
:100E80005F000000000000000000000000B3880ABE
:100E90008D3B000008524331315F0000000000002C
:100EA000000000000000B4A60A8D3B000008484482
:100EB0004E4732524C4C5F0000000000000000F032
:100EC0001E0B103B0000084152535032505443480F
:100ED0005F00000000000000F33C0B103B00000826
:100EE000454E524759325448525F000000000000FE
:100EF00000F55A0B103B000008414C54325054434B
:100F0000485F0000000000000000F6780B103B0076
:100F10000008574845454C53544545525F00000072
:100F2000000000F7960B103B000008524C4C325367
:100F300052565F000000000000000000F1C40A10DB
:100F40003B00000850544348325352565F000000A3
:100F50000000000000F2E20A103B0000085957327E
:100F60005352565F00000000000000000000F40033
:100F70000B103B000008434F4D504153535F00009E
:100F800000000000000000851E0CF22B000008533A
:100F900052305F0000000000000000000000000070
:100FA0006E2D0759030000085352335F0000000004
:100FB0000000000000000000006FB50759030000AA
:100FC00008494E535F0000000000000000000000D0
:100FD00000002179068335000008414852535F0024
:100FE00000000000000000000000008CC806ED2694
:100FF00000000841525350445F0000000000000010
:10100000000000008E4A08CE270000084D4E545FB5
:1010100000000000000000000000000000A15E08C9
:101020004937000000000000000000000000000040
:10103000000000000000000000000000004C6F678E
:101040000064756D70000000000000000000009F4B
:101050003C6572617365000000000000000000F74D
:1010600073656E61626C650000000000000000BBEB
:101070003B64697361626C6500000000000000BBA6
:101080003B736574757000726573657400000000D1
:101090000000000000693B726164696F000000009D
:1010A00000000000006A6A6D6F6465730000000054
:1010B0000000000000A8696C6576656C0000000007
:1010C0000000000000E673616363656C00000000CF
:1010D0000000000000D23A636F6D7061737300000E
:1010E0000000000000664A6465636C696E617469A3
:1010F0006F6E000000C23A6261747465727900001C
:101100000000000000EE3473686F770000000000FC
:101110000000000000443773657400000000000008
:1011200000000000002E356572617365000000004C
:101130000000000000922B41726475506C616E6576
:101140002056322E3731006C6F67730000000000AC
:101150000000000000E83473657475700000000042
:101160000000000000C534746573740000000000C6
:101170000000000000A2347265626F6F740000000E
:101180000000000000B22C68656C700000000000D8
:101190000000000000872C746573740070776D0088
:1011A0000000000000000000000026697261646910
:1011B0006F00000000000000000030717061737368
:1011C00074687275000000000000A9596661696CBE
:1011D000736166650000000000001268626174744B
:1011E000657279000000000000007B7072656C6120
:1011F00079000000000000000000A45877617970B9
:101200006F696E747300000000002A5A7862656589
:10121000000000000000000000004958656564758A
:101220006D7000000000000000005E2E6D6F6465B0
:101230007377697463680000000024596C6F6767F6
:10124000696E6700000000000000542E506F736943
:1012500074696F6E2025640A00436F6E74726F6C40
:10126000204348200048697420456E7465722074DC
:101270006F20657869742E0A0A00202530327800C4
:10128000253034783A00426567696E2058426565BA
:1012900020582D4354552052616E676520616E645D
:1012A000205253534920546573743A0A004C6F69B5
:1012B000746572207261646975733A2025640A0A44
:1012C00000486974207261646975733A2025640A64
:1012D00000256420776179706F696E74730A004825
:1012E0006F6C6420616C746974756465206F66202E
:1012F00025646D0A00486F6C642063757272656EB8
:101300007420616C7469747564650A00636F6D6D37
:10131000616E6420233A2025642069643A256420A4
:101320006F7074696F6E733A25642070313A25646A
:101330002070323A256C642070333A256C6420703A
:10134000343A256C64200A0052656C6179206F661E
:10135000660A0052656C6179206F6E0A004E6F74E8
:1013600020656E61626C65640A00563A2025342E51
:1013700034662C20413A2025342E34662C206D41D1
:10138000683A2025342E34660A00563A2025342E39
:1013900034660A004D5347204653204F46462025C9
:1013A00075004D5347204653204F4E20257500545D
:1013B0007269676765726564204155544F20786192
:1013C0006363656C3D252E3166004C4F532063618D
:1013D00075736564206E6F206368616E6765206950
:1013E0006E2041504D2E0A005448524F54544C45E3
:1013F000204641494C5341464520414354495641BA
:101400005445443A2025642C2000434F4E54524FFB
:101410004C204D4F4445204348414E4745443A20D7
:10142000005448524F54544C45204348414E474580
:1014300044202564200A00556E706C756720626137
:1014400074746572792C207468726F74746C652082
:10145000696E206E65757472616C2C207475726E85
:10146000206F666620726164696F2E0A002D2D2D33
:10147000004C6F697465720052544C004155544FD2
:10148000004642575F42004642575F410054726136
:10149000696E696E670053746162696C697A650090
:1014A000436972636C65004D616E75616C00434801
:1014B0003A002C00494E20313A20256409323A2066
:1014C000256409333A20256409343A202564093516
:1014D0003A20256409363A20256409373A202564E4
:1014E00009383A2025640A00494E3A09313A202544
:1014F0006409323A20256409333A20256409343AD4
:1015000020256409353A20256409363A20256409E6
:10151000373A20256409383A2025640A00436F6D64
:101520006D616E64733A0A20206C6F67732020200F
:1015300020202020206C6F672072656164626163E7
:101540006B2F7365747570206D6F64650A2020734E
:1015500065747570202020202020207365747570BC
:10156000206D6F64650A202074657374202020202C
:101570002020202074657374206D6F64650A20201C
:101580007265626F6F742020202020207265626F68
:101590006F7420746F20666C69676874206D6F6467
:1015A000650A0A0054657374204D6F64650A0A0069
:1015B0005365747570204D6F64650A0A494D504F2C
:1015C0005254414E543A20696620796F7520686103
:1015D0007665206E6F742070726576696F75736CB6
:1015E00079207365742074686973207379737465E6
:1015F0006D2075702C20757365207468650A2772DC
:10160000657365742720636F6D6D616E6420746F00
:1016100020696E697469616C697A652074686520F7
:10162000454550524F4D20746F2073656E7369624B
:101630006C652064656661756C742076616C756597
:10164000730A616E64207468656E20746865202773
:10165000726164696F2720636F6D6D616E642074C1
:101660006F20636F6E66696775726520666F7220A2
:10167000796F757220726164696F2E0A0A000A54CC
:101680007970652027592720616E6420686974206D
:10169000456E74657220746F206572617365206198
:1016A0006C6C20776179706F696E7420616E642054
:1016B000706172616D6574657220646174612C2063
:1016C000616E79206F74686572206B657920746F24
:1016D0002061626F72743A2000646F6E650A000ABE
:1016E00045726173696E6720454550524F4D0A003F
:1016F00043616E6E6F742073657420706172616DEA
:1017000065746572206F6620747970652025642E7B
:101710000A0056616C7565206F7574206F662072C3
:10172000616E676520666F72207479706520494E1E
:101730005431360A0056616C7565206F7574206FE0
:10174000662072616E676520666F722074797065BD
:1017500020494E54380A00506172616D206E6F74DA
:1017600020666F756E643A2025730A00496E7661B3
:101770006C696420636F6D6D616E642E20557361BA
:1017800067653A20736574203C6E616D653E203C50
:1017900076616C75653E0A005261772056616C7502
:1017A00065730A00556E68616E646C6564207061D3
:1017B00072616D65746572207479706520666F72F0
:1017C0002025733A2025642E0A00464C4F415420B0
:1017D00025733A2025660A00494E5433322025737A
:1017E0003A20256C640A00494E5431362025733A5C
:1017F0002025640A00494E5438202025733A2025BC
:10180000640A00506172616D65746572206E6F7458
:1018100020666F756E643A20272573270A0052618F
:1018200064696F0A004348383A202564207C2025EB
:1018300064207C2025640A004348373A2025642030
:101840007C202564207C2025640A004348363A2009
:101850002564207C202564207C2025640A004348E0
:10186000353A202564207C202564207C2025640ACC
:10187000004348343A202564207C202564207C20C5
:1018800025640A004348333A202564207C202564DF
:10189000207C2025640A004348323A202564207CBD
:1018A000202564207C2025640A004348313A202505
:1018B00064207C202564207C2025640A004D6F6E06
:1018C00069746F72696E6720766F6C747320616ED5
:1018D000642063757272656E74004D6F6E69746F0B
:1018E00072696E67206261747420766F6C74730025
:1018F00042617474206D6F6E69746F72696E6720D7
:1019000064697361626C65640042617474204D6F38
:10191000696E746F720A006E617620706974636814
:1019200020616C743A0A00656E6572677279207482
:1019300068726F74746C653A0A006E617620706923
:101940007463682061697273706565643A0A006E39
:10195000617620726F6C6C3A0A00736572766F2044
:101960007275646465723A0A00736572766F2070EE
:10197000697463683A0A00736572766F20726F6CDF
:101980006C3A0A004761696E730A00503A202534A8
:101990002E33662C20493A25342E33662C20443AC7
:1019A00025342E33662C20494D41583A256C640A63
:1019B0000058545241434B3A2025342E32660A587F
:1019C000545241434B20616E676C653A2025640A8E
:1019D0000043726F7373747261636B0A006D696E9A
:1019E0003A2025640A6D61783A2025640A6372758D
:1019F0006973653A2025640A6661696C736166657E
:101A00005F656E61626C65643A2025640A6661698F
:101A10006C736166655F76616C75653A2025640A52
:101A2000005468726F74746C650A00466C6967686C
:101A300074206D6F6465730A00506F732025643ADB
:101A40002000494E530A004779726F206F66667313
:101A50006574733A2025342E32662C2025342E32BC
:101A6000662C2025342E32660A00416363656C20A3
:101A70006F6666736574733A2025342E32662C20A7
:101A800025342E32662C2025342E3266097363618C
:101A90006C653A2025342E32662C2025342E326691
:101AA0002C2025342E32660A004D6167206F666651
:101AB000736574733A2025342E34662C2025342E19
:101AC00034662C2025342E34660A004D616720448C
:101AD00065636C696E6174696F6E3A2025342E34CB
:101AE000660A003F3F0048494C00484D43353834B2
:101AF0003300484D43353838334C00436F6D7061C7
:101B000073733A200061626C65640A006469730053
:101B1000656E002D000A4F7074696F6E733A203342
:101B20002D34000A4F7074696F6E733A5B6F6E2CC0
:101B30006F66662C72657365745D0A007265736505
:101B400074006F666600436F6D7061737320696E19
:101B5000697469616C69736174696F6E206661692B
:101B60006C656421006F6E0053657474696E672044
:101B70004D414E55414C5F4C4556454C20746F20AD
:101B80003100496E697469616C6973696E672067B9
:101B900079726F7300426567696E6E696E6720497E
:101BA0004E532063616C6962726174696F6E3B2091
:101BB000646F206E6F74206D6F766520706C616E3F
:101BC00065005761726D696E6720757020414443EE
:101BD0002E2E2E0057616974696E6720666F722021
:101BE00066697273742048494C5F535441544520D0
:101BF0006D6573736167650044656D6F2053657231
:101C0000766F7321000A4D6F766520524320746F02
:101C100067676C652073776974636820746F2065EB
:101C200061636820706F736974696F6E20746F20D0
:101C3000656469742C206D6F76652061696C6572CE
:101C40006F6E20737469636B20746F2073656C65AD
:101C50006374206D6F6465732E000A53617665644A
:101C60002053657474696E67730A0A000A4D6F76B3
:101C70006520616C6C20636F6E74726F6C7320747E
:101C80006F20656163682065787472656D652E20CC
:101C900048697420456E74657220746F2073617694
:101CA000653A200A000A4E6F20726164696F3B201A
:101CB000436865636B20636F6E6E6563746F7273E8
:101CC0002E000A0A526164696F2053657475703A78
:101CD0000A000A464143544F525920524553455435
:101CE00020636F6D706C657465202D20706C65616C
:101CF00073652072657365742041504D20746F20A8
:101D0000636F6E74696E7565000A5479706520277B
:101D1000592720616E642068697420456E7465726D
:101D200020746F20706572666F726D2066616374D7
:101D30006F72792072657365742C20616E79206FE3
:101D400074686572206B657920746F2061626F72B0
:101D5000743A2000656E61626C65004355525245CD
:101D60004E5400434D4400494D55004D4F444500ED
:101D70004E54554E004354554E00504D004750535D
:101D80000041545449545544455F4D454400415425
:101D90005449545544455F4641535400616C6C00AE
:101DA0006D697373696E67206C6F672074797065F5
:101DB0000A004C6F6720657261736520636F6D70F8
:101DC0006C6574650045726173696E67206C6F673E
:101DD0007300446F6E650A0044756D70696E67200C
:101DE0004C6F672025752C2020202073746172743D
:101DF0002070672025752C202020656E6420706778
:101E00002025750A00626164206C6F67206E756D15
:101E10006265720A0064756D70696E6720616C6C32
:101E20000A000A41726475506C616E652056322E4C
:101E300037310A467265652052414D3A2025750AB0
:101E4000004154542C20256C642C20256C642C20DB
:101E5000256C640A004D4F442C004354554E2C20F1
:101E600025342E32662C2025342E32662C20253443
:101E70002E32662C2025342E32662C2025342E322C
:101E8000662C2025342E32662C2025342E32662CEA
:101E90002025342E32662C2025342E34660A004E3E
:101EA00054554E2C2025342E34662C20256C752C50
:101EB0002025342E34662C2025342E34662C202503
:101EC000342E34662C2025342E34660A00504D2CD6
:101ED00020256C752C2025752C2025642C2025753B
:101EE0002C2025752C2025752C2025642C2025647C
:101EF0002C2025642C2025640A00494D552C2025D2
:101F0000342E34662C2025342E34662C2025342E95
:101F100034662C2025342E34662C2025342E34664D
:101F20002C2025342E34660A00434D442C20257580
:101F30002C2025752C2025752C2025752C20257509
:101F40002C20256C642C20256C642C20256C640AC4
:101F50000043555252454E542C2025642C202534E4
:101F60002E34662C2025342E34662C2025640A005D
:101F7000202D20257520636F6D6D616E647320695F
:101F80006E206D656D6F72790A00554E4B4E4F573E
:101F90004E20535441525455500047524F554E44D1
:101FA00020535441525400414952205354415254F9
:101FB000002C2025342E34662C2025342E34662C1B
:101FC00020256C752C20256C640A002C20004750BD
:101FD000532C20256C642C2025752C20002C2025CA
:101FE0006C642C2025642C2025642C2025750A0087
:101FF0002C200043414D4552412C20256C752C204E
:10200000004C6F672025642C20202020737461729F
:10201000742025642C202020656E642025640A002D
:102020000A2575206C6F67730A000A4E6F206C6F6B
:1020300067730A0A0043555252454E5400202553F7
:1020400000434D440020255300494D5500202553A1
:10205000004D4F444500202553004E54554E00205E
:102060002553004354554E0020255300504D002069
:1020700025530047505300202553004154544954E0
:102080005544455F4D454400202553004154544973
:10209000545544455F4641535400202553006E6F0C
:1020A0006E65006C6F677320656E61626C65643A83
:1020B00020005265636569766564205265717565B7
:1020C0007374202D206A756D7020746F20636F6D9E
:1020D0006D616E64202325690043616E6E6F74200C
:1020E0006368616E676520746F206E6F6E2D4E6140
:1020F0007620636D64202575005265636569766599
:10210000642052657175657374202D207265736546
:1021100074206D697373696F6E00283229204E6FC9
:102120006E2D4E617620636F6D6D616E6420494443
:10213000207570646174656420746F2023256920A4
:102140006964783D2575004E6F6E2D4E6176206373
:102150006F6D6D616E6420494420757064617465B3
:102160006420746F20232569206964783D257500FB
:102170006F7574206F6620636F6D6D616E6473217F
:10218000004E617620636F6D6D616E6420696E64D0
:102190006578207570646174656420746F202325F0
:1021A000690052657475726E696E6720746F20489D
:1021B0006F6D6500457865637574696E67206E6143
:1021C0007620636F6D6D616E64204944202325691C
:1021D00000526573657474696E6720707265765F0E
:1021E000575000457865637574696E6720636F6D3D
:1021F0006D616E642049442023256900444F5F537C
:1022000045545F524F49206E6F7420737570706F24
:102210007274656400457865637574696E672063E0
:102220006F6D6D616E6420494420232569007365DC
:102230007474696E6720636F6D6D616E6420696E82
:102240006465783A202569004A756D7020746F20A6
:1022500057502025752E204A756D7073206C656669
:10226000743A20256400536B697070696E67206949
:102270006E76616C6964206A756D7020746F2025BC
:1022800069004A756D7073206C6566743A20302061
:102290002D20736B697070696E67005365742074CC
:1022A00068726F74746C65202575005365742067BF
:1022B000726F756E64737065656420257500536573
:1022C00074206169727370656564202575206D2FB7
:1022D000730067707320616C743A20256C75006917
:1022E0006E697420686F6D6500256C642E2530372B
:1022F0006C64002D006261642066656E6365207009
:102300006F696E74006261642066656E636520703B
:102310006F696E740066656E63696E67206D7573B4
:10232000742062652064697361626C656400666C28
:102330006967687420706C616E2072656365697688
:10234000656400666C6967687420706C616E2075E6
:1023500070646174652072656A65637465640055B4
:102360006E6B6E6F776E20706172616D65746572F1
:1023700020252E31367300556E6B6E6F776E207090
:102380006172616D6574657220696E64657820257F
:102390006400636F6D6D616E64207265636569765C
:1023A00065643A20006261726F6D657465722063C6
:1023B000616C6962726174696F6E20636F6D706CBD
:1023C0006574650043616C6962726174696E67204F
:1023D0006261726F6D65746572007A65726F2061FB
:1023E000697273706565642063616C69627261749F
:1023F000656400666C69676874206D6F6465203D74
:10240000202575004661696C73616665202D205337
:10241000686F7274206576656E74206F6E2C200074
:102420004661696C73616665202D2053686F727414
:10243000206576656E74206F66660067656F2D6631
:10244000656E6365207472696767657265640067AD
:10245000656F2D66656E6365204F4B0067656F2D58
:1024600066656E6365207365747570206572726F42
:10247000720067656F2D66656E6365206C6F6164C1
:102480006564007665726966795F6E61763A2049A7
:102490006E76616C6964206F72206E6F2063757256
:1024A00072656E74204E617620636D6400486F6CB7
:1024B00064696E6720636F7572736520256C6400B4
:1024C0004C616E6420436F6D706C657465202D20C7
:1024D000486F6C6420636F7572736520256C6400AF
:1024E00050617373656420576179706F696E7420F1
:1024F00023256920646973742025756D004D697307
:1025000073656420575000526561636865642057A5
:102510006179706F696E7420232569206469737412
:102520002025756D007665726966795F6E61763A11
:10253000204C4F49544552206F7262697473206376
:102540006F6D706C657465007665726966795F6E33
:1025500061763A204C4F495445522074696D65208C
:10256000636F6D706C657465005265616368656466
:1025700020686F6D65007665726966795F636F6E5E
:102580006469746F6E3A20496E76616C6964206F7D
:1025900072206E6F2063757272656E7420436F6E69
:1025A000646974696F6E20636D6400666C69676846
:1025B00074206D6F6465203D202575004661696C4F
:1025C00073616665202D204C6F6E67206576656EA1
:1025D00074206F6E2C20000A507265737320454E74
:1025E00054455220332074696D657320746F2073D5
:1025F0007461727420696E74657261637469766562
:102600002073657475700A0045524153494E472046
:102610004C4F4753004E6F2064617461666C617368
:1026200068206361726420696E736572746564000A
:102630000A0A496E69742041726475506C616E6556
:102640002056322E37310A0A467265652052414DB6
:102650003A2025750A006C6F61645F616C6C2074B0
:102660006F6F6B20256C7575730A00646F6E652E35
:10267000004669726D77617265206368616E676597
:102680003A2065726173696E6720454550524F4D1F
:102690002E2E2E0A00496E76616C696420534552D5
:1026A00049414C335F42415544000A0A205265615A
:1026B000647920746F20464C592E003C737461720B
:1026C0007475705F67726F756E643E2047524F5528
:1026D0004E4420535441525400496E697469616CF0
:1026E0006973696E672041504D2E2E2E00040247FB
:1026F00050535F4741494E000000000000000000B9
:1027000024000000803F01034750535F55534500AC
:1027100000000000000000000028000000803F04CE
:10272000045941575F500000000000000000000005
:1027300000001C00CDCCCC3E040552505F50000080
:1027400000000000000000000000002000CDCCCC04
:102750003E010657494E445F4D41580000000000BD
:10276000000000002A000000000001074241524F13
:102770005F555345000000000000000000290000E4
:1027800000000005085452494D0000000000000000
:102790000000000000003B000000000001094F5253
:1027A00049454E544154494F4E0000000000002B53
:1027B000000000000000FF0000000000000000001A
:1027C0000000000000000000000000000000010008
:1027D000454E41424C450000000000000000000052
:1027E000000B000000803F01015553450000000030
:1027F000000000000000000000000A0000000000CF
:1028000004024F46465345540000000000000000FB
:102810000000000200000000000403524154494F30
:102820000000000000000000000000000600492E2B
:10283000FF3F00FF0000000000000000000000005B
:1028400000000000000000000000000402414253AC
:102850005F505245535300000000000000000C0080
:1028600000000000040354454D500000000000002B
:102870000000000000000008000000000000FF0051
:102880000000000000000000000000000000000048
:1028900000000000000050414E49433A2041505F83
:1028A0004261726F3A3A7265616420756E73756346
:1028B0006365737366756C20666F72206D6F7265E9
:1028C000207468616E203530306D7320696E204150
:1028D000505F4261726F3A3A63616C69627261740F
:1028E00065205B335D0D0A0050414E49433A20415B
:1028F000505F4261726F3A3A7265616420756E731F
:1029000075636365737366756C20666F72206D6F97
:102910007265207468616E203530306D7320696E89
:102920002041505F4261726F3A3A63616C69627232
:10293000617465205B325D0D0A0050414E49433A97
:102940002041505F4261726F3A3A7265616420754E
:102950006E7375636365737366756C20666F722042
:102960006D6F7265207468616E203530306D732034
:10297000696E2041505F4261726F3A3A63616C69DF
:102980006272617465205B315D0D0A0050414E49F1
:10299000433A2041505F4261726F5F4D533536318B
:1029A0003120746F6F6B206D6F7265207468616E7B
:1029B00020313030306D7320746F20696E69746916
:1029C000616C697A650050414E49433A2041505F3D
:1029D0004261726F5F4D53353631313A206661691D
:1029E0006C656420746F2074616B65207365726917
:1029F000616C2073656D6170686F726520666F72BF
:102A000020696E69740050414E49433A2041505F3D
:102A10004261726F5F4D53353631313A204E554C1D
:102A20004C2073657269616C20647269766572000E
:102A300050414E49433A206661696C656420746F69
:102A40002074616B65205F6932635F73656D20314F
:102A500030302074696D657320696E206120726F5B
:102A6000772C20696E2041505F4261726F5F4D5339
:102A7000353631313A3A5F757064617465005041A2
:102A80004E49433A2041505F4261726F5F4D53356A
:102A900036313120646964206E6F7420676574205C
:102AA00076616C6964204932432073656D6170689A
:102AB000726F65210050414E49433A206661696C4E
:102AC000656420746F2074616B65205F7370695F4B
:102AD00073656D203130302074696D657320696EC7
:102AE000206120726F772C20696E2041505F426117
:102AF000726F5F4D53353631313A3A5F75706461AC
:102B000074650050414E49433A2041505F42617222
:102B10006F5F4D533536313120646964206E6F74B8
:102B2000206765742076616C696420535049207376
:102B3000656D617068726F65210050414E49433A7E
:102B40002041505F4261726F5F4D53353631312005
:102B5000646964206E6F74206765742076616C69A7
:102B60006420535049206465766963652064726906
:102B70007665722100010054524947475F5459500D
:102B800045000000000000000000000000000101FE
:102B90004455524154494F4E0000000000000000CF
:102BA000000100000020410202534552564F5F4F82
:102BB0004E00000000000000000002000080A2445F
:102BC0000203534552564F5F4F4646000000000037
:102BD00000000004000080894400FF0000000000A5
:102BE00000000000000000000000000000000000E5
:102BF000000005014F4653000000000000000000E7
:102C000000000000001100000000000402444543E1
:102C100000000000000000000000000000001D0097
:102C20000000000001034C4541524E00000000002E
:102C30000000000000000021000000803F0104555A
:102C400053450000000000000000000000000000EC
:102C500022000000803F01054155544F4445430088
:102C600000000000000000000023000000803F0181
:102C7000064D4F54435400000000000000000000C7
:102C800000009E000000000005074D4F54000000AA
:102C900000000000000000000000009F0000000095
:102CA0000000FF0000000000000000000000000025
:102CB0000000000000000000000096918C87827DDB
:102CC00078736E69645F5A55504B46413C37322DDC
:102CD00028231E19140F0A050004090E13181D22BB
:102CE000272C31363B40454A4F54595E63686D721C
:102CF000777C81868B90959A9FA4A9AEB3AFAAA545
:102D0000A09B968F89837E78736E69645F5A555055
:102D10004B47423E3935302C27231F1B16120E0914
:102D2000050103070B1014191D22262B2F34393DE2
:102D300042474C51565B60656B70757B80868C9208
:102D4000979DA3A9AFB2ACA6A09A948F827C76700F
:102D50006B65605C57524E4A46413D3936322E2AE9
:102D600026221F1B1713100C08040102060A0E125C
:102D7000161A1E22262B2F33383D41464B4F5459ED
:102D80005E64696F747A80878D949BA2AAB1AEA6A7
:102D90009F979089826F68635E5955514D494642AD
:102DA0003F3C3835322E2B2824211E1A1714100DC3
:102DB0000A0603000306090D1014181C2024282CF1
:102DC0003034393D41464A4F54585D62676D7379DE
:102DD00080878F98A2ACB0A59A90867D766F55516A
:102DE0004D4A4744413F3C3A383533312E2B292652
:102DF00023201D1A1713100D0A07040101030609E9
:102E00000D1013171A1E22262A2E32363A3E42463B
:102E10004A4E53575B5F64696E757C85909FB2A084
:102E20008D7D7067605A553E3C3A393736343332BF
:102E3000302F2E2C2A292724221F1C191613100D7F
:102E40000A070402000305080A0D1013161A1D21B3
:102E500025292D3135383C4043464A4D505356596B
:102E60005B5E6165696F826D544D4A474442403EE6
:102E70002E2E2D2C2C2B2A2A2929282726252423BF
:102E8000211F1C1A1714100D0A070401010305075E
:102E9000090C0E1013161A1D2124282C3033373A32
:102EA0003D40424447484A4A4B4A48443D30190253
:102EB0001621282B2D2E2F2E2E06090C0F1215173A
:102EC000191B1C1B1811040E2231383C3C3C3A38AB
:102ED00035322F2B2824201C1915110D090501024C
:102EE000060A0E1115181C1F222527292A2B2B290B
:102EF00026211911080004080A0A0A08070402001A
:102F0000030616181A1C1E20211F17125160636237
:102F10005F5D5956524E4A46423E3935312C28247F
:102F2000201B17130E0A060102060A0F13171B1F98
:102F300023262A2D313437393C3D3F3F3E3D39353C
:102F40002F28211C17151313131416A8ADB2B0ABFC
:102F5000A6A19C97928D88837E79746F6A65605B69
:102F600056514C47423D38332E29241F1A15100B59
:102F7000060103080D12171C21262B30353A3F4459
:102F8000494E53585D62676C71767B80858A8F9459
:102F9000999EA3A800000001FFFFE00000000000D0
:102FA0000001FFFFF000000000000001FFFFF8003B
:102FB000000000000001FFFFFE0000000000000311
:102FC000FFFFFF00000000000003FFFFFFF0000014
:102FD0000000000FFFFFFFFE00000003FFFFFC00EA
:102FE0000007FC00007FFFFFFC0000000000000065
:102FF0001FFFFE0000000000241E191512100E0C09
:103000000B0A090909080808070606050404040351
:103010000404040000000000000000000027262136
:1030200023252325242722292A2A1C27282B33322B
:103030002725222C3331303700000000000000002B
:103040000000801140114071327334333213121179
:103050003211129334131453523100210304060821
:103060000B2D0A090705040241C011C05112535427
:10307000731211125152731473323100210204057C
:1030800006070809080607062403020102000120BA
:10309000012011C00111003132137413143312F1E5
:1030A00012D3125100010223250607464423422170
:1030B0000001E0A0313213B43311121100112011BC
:1030C00000523312133211200122248504230402FA
:1030D0000342410001E0A0511214131513153413DB
:1030E00032514001201152133231000122230405D4
:1030F00004050423010382612001E01180113213D1
:103100005415143332314021020100317231410231
:1031100023442302012201220102614001A0118007
:1031200051121413341514331231400102010302F9
:10313000012052111220212243042241022102A126
:103140000001E02011405153741332114021020359
:103150000203020100111211320011412223222127
:10316000004102A18001601160110011323374131B
:1031700012114001620302032131121112114001A8
:10318000020102030201000100E121E0A01120126E
:1031900011733433312001620362401211121100A5
:1031A000110100010201220001200100E1C0010023
:1031B0001180110012111312141334522001E20273
:1031C00021203112110011000100210201000140F3
:1031D000210002410001E06011401112111312148C
:1031E00013141332110021220342010221000100B5
:1031F00011001211001120010041600100C1000105
:103200004011200160114051121312131433123176
:10321000000142032201022100014011003100118E
:10322000000100010001A0E10001A0018011203196
:10323000529312110021C2210021403100112011AE
:1032400000010001E0E16001E01100117273123130
:10325000002142030102010220214011001120112E
:1032600060014011600100010221020001200140C3
:1032700001A05132131253321120010201822100A8
:1032800021000100110031E0001100116021000156
:103290000201020101002120010001601100115210
:1032A0001312141352110041820102000100214047
:1032B0001100110011A01100310011208122010123
:1032C00000020100210001601100521312131413B7
:1032D00032310100020122014201002100010001FE
:1032E0001120110011201140710011400102210232
:1032F0000102010021022100010001001100121150
:103300001233123413321120010201420122010052
:1033100041000160112011001100110051123120F3
:1033200061020122020002010281201100121173C8
:103330003413321100410201820100610001801149
:1033400000110091323140214201020200626140CD
:103350001152141354333100418201220001020042
:10336000410001609112115251200122010301021A
:1033700002008261005133541514333100210201DF
:103380002203424102A180319213323100412203D3
:10339000020103002203220102014011123395337E
:1033A00031010022010342032221220102610001B6
:1033B0001100115213125312310041220322030053
:1033C00023020302010221203213141615171615C9
:1033D000331120016203020302032201A2414011C2
:1033E00012531413141332110100020102030203D9
:1033F000020200022302032221203214163718177A
:103400001513121100212203024302430103020398
:103410008221201112131415341514321100016287
:103420002302030043020342012012131518193A24
:103430001715131100210203026304E302030203C0
:1034400002010240121314151715163412202122FE
:1034500043020300A3220100111215181C1E1D199E
:1034600016131100020103020304230403240304BE
:1034700043042304030203422011121415171836C3
:10348000151331210203022302034572726F723A4F
:103490002041505F48414C5F4156523A3A415652A2
:1034A000416E616C6F67496E206F7574206F662086
:1034B0006368616E6E656C730D0A00474F494E4735
:1034C00020444F574E20464F522041205245424FF4
:1034D0004F540D0A0050414E49433A2073636865CA
:1034E00064756C65723A3A73797374656D5F696E71
:1034F000697469616C697A65642063616C6C656488
:103500006D6F7265207468616E206F6E6365005028
:10351000414E49433A2041565253656D6170686F80
:1035200072653A3A74616B652075736564206672E2
:103530006F6D20696E736964652074696D657220B2
:1035400070726F636573730050414E49433A205364
:1035500050493020777269746520636F6C6C6973B1
:10356000696F6E0050414E49433A20535049302014
:103570007472616E7366657220636F6C6C697369D7
:103580006F6E00020050524F445543545F4944004F
:103590000000000000001A00000000000501414387
:1035A000435343414C000000000000000000001C99
:1035B000000000000005024143434F46465300000F
:1035C00000000000000000002800000000000503CB
:1035D0004759524F464653000000000000000000CB
:1035E0000034000000000001044D5055364B5F468A
:1035F000494C54455200000000004000000000000B
:1036000000FF0000000000000000000000000000BB
:1036100000000000000000000043616C69627261FC
:1036200074696F6E206661696C65642028252E318F
:103630006620252E316620252E316620252E316606
:1036400020252E316620252E3166290A0043616C23
:103650006962726174696F6E2073756363657373F9
:1036600066756C0A00506C6163652041504D2025E1
:103670005320616E6420707265737320616E7920CF
:103680006B65792E0A006F6E206974732042414386
:103690004B006E6F7365205550006E6F736520444C
:1036A0004F574E006F6E206974732052494748543B
:1036B0002073696465006F6E20697473204C454601
:1036C000542073696465006C6576656C0020002A7F
:1036D00000496E697420416363656C000A67797202
:1036E0006F20646964206E6F7420636F6E766572FC
:1036F00067653A20646966663D2566206470730AD2
:10370000002A00496E6974204779726F00202025D5
:10371000530A00436F6D6D616E64733A00496E76B3
:10372000616C696420636F6D6D616E642C207479C7
:103730007065202768656C7027006578697400687B
:10374000656C700025535D200001004D4F4445001D
:103750000000000000000000000000003600000033
:10376000000005015245545241435400000000003E
:10377000000000000047000000000005024E455513
:103780005452414C000000000000000000005300B3
:10379000000000000503434F4E54524F4C00000000
:1037A000000000000000005F000000000001045362
:1037B0005441425F524F4C4C00000000000000009A
:1037C0003300000000000105535441425F54494C4E
:1037D0005400000000000000003400000000000160
:1037E00006535441425F50414E000000000000006B
:1037F0000000350000000000010752435F494E5FA2
:10380000524F4C4C00000000000000370000000048
:10381000000208414E474D494E5F524F4C00000098
:10382000000000003A0000A08CC50209414E474D3F
:1038300041585F524F4C000000000000003C000067
:10384000A08C45010A52435F494E5F54494C5400D5
:10385000000000000000380000000000020B414E94
:10386000474D494E5F54494C000000000000003EA7
:103870000000A08CC5020C414E474D41585F544991
:103880004C00000000000000400000A08C45010D2D
:1038900052435F494E5F50414E000000000000005F
:1038A00000390000000000020E414E474D494E5FB6
:1038B00050414E00000000000000420000A08CC5F6
:1038C000020F414E474D41585F50414E00000000ED
:1038D000000000440000A08C4501104A53544943A5
:1038E0004B5F535044000000000000004600000001
:1038F000000000FF000000000000000000000000C9
:10390000000000000000000000000025733A2025A0
:10391000660A0025733A20256C640A0025733A2054
:1039200025640A0025733A2025640A0050414E4957
:10393000433A2044617461466C6173682053504976
:103940004465766963654472697665722073656D56
:103950006170686F7265206973206E756C6C0050C1
:10396000414E49433A2044617461466C617368205A
:10397000535049446576696365447269766572207F
:103980006E6F7420666F756E64004E756D50616762
:1039900065733A20257520205061676553697A6503
:1039A0003A2025750A004D616E7566616374757203
:1039B00065723A20307825303278202020446576B0
:1039C0006963653A203078253034780A004E6F20DC
:1039D00064617461666C61736820696E736572748A
:1039E00065640025750A0025752C09004446207081
:1039F0006167652C206C6F672066696C6520232CDD
:103A0000206C6F6720706167653A2025752C09006E
:103A1000327C8900EDD96877000000590000000071
:103A200000000000D69FDCA81817AA90437327F661
:103A3000B968EDF4DED409FEE61C1C84DDE80B99C0
:103A40002927D6DF8D210F036418EFEE1EF0B78211
:103A50008200941500F37C0000001400988F000091
:103A60007F6A00000000000000E7B73F360000005A
:103A700000000000AF669ED0385D00000000EB5DE6
:103A80007C000000000000000000000000000000BA
:103A90000000000000000000000000000000000026
:103AA0000000002AF10F86DBD0BC541613158600E7
:103AB0004E44BD7F6F15159001EA49B516530000BD
:103AC00000000000000000000000000000000000F6
:103AD00000000000000000000000000000000000E6
:103AE00000000000000000000000000000000000D6
:103AF00000000000000000000000000000000000C6
:103B0000000000000000000000CC31AA2C532E0061
:103B10000400500000000000000000000000000051
:103B20000000000000000000000401490000000047
:103B30000000000000000000000000000400000081
:103B4000000004024400000000000000000000002B
:103B500000000000000800000000000203494D4181
:103B600058000000000000000000000000000C00F1
:103B70000000000000FF0000000000000000000046
:103B8000000000000000000000000000000800002D
:103B90000000000000000000000000000000000025
:103BA0000000D83B0000010146554E4354494F4E9A
:103BB0000000000000000000001D000000000000E8
:103BC000FF000000000000000000000000000000F6
:103BD000000000000000000002004D494E000000FF
:103BE00000000000000000000000000A00008089C2
:103BF0004402015452494D00000000000000000042
:103C0000000000000C000080BB4402024D4158003F
:103C1000000000000000000000000000000E000096
:103C200080ED4401035245560000000000000000F2
:103C300000000000000010000000803F0204445A11
:103C40000000000000000000000000000000001163
:103C5000000000000000FF00000000000000000065
:103C600000000000000000000000000000006E6185
:103C70006E00696E660000002100240027002A0003
:103C80002D003000330001010000040107010A018A
:103C900000002200250028002B002E0031003400F7
:103CA00002010000050108010B01000020002300B3
:103CB000260029002C002F00320000010000030123
:103CC000060109010505050507050808080802029F
:103CD00002020A0A080804040404010101010101A6
:103CE00001010303030303030303040707070C0C89
:103CF0000C0C0C0C0C0C0202020206060606060650
:103D000006060B0B0B0B0B0B0B0B050102102020F7
:103D1000080810204010204080020102010804021F
:103D20000101020408102040808040201008040295
:103D300001800402018040201008040201080402EE
:103D400001010204081020408001020408102040F4
:103D500080400000090A02080B0C0D07060304014D
:103D60000000000000000000000000000000000053
:103D70000000000000000000000000000000111022
:103D80000F00000000000000000000000000000024
:103D900000000000000000000000407A10F35A000C
:103DA000A0724E18090010A5D4E80000E876481764
:103DB0000000E40B54020000CA9A3B000000E1F549
:103DC00005000080969800000040420F000000A00F
:103DD0008601000000102700000000E8030000003A
:103DE000006400000000000A000000000001000064
:103DF0000000002C76D888DC674F0823DFC1DFAED7
:103E000059E1B1B796E5E3E453C63AE6519976969F
:103E1000E8E6C28426EB898C9B62ED407C6FFCEF68
:103E2000BC9C9F40F2BAA56FA5F490055A2AF75C96
:103E3000936B6CF9676DC11BFCE0E40D47FEF52048
:103E4000E6B500D0ED902E03009435770500808410
:103E50001E080000204E0A000000C80C3333333324
:103E60000F986E12831141EF8D2114893BE6551690
:103E7000CFFEE6DB18D1844B381BF77C1D901DA4C8
:103E8000BBE424203284725E228100C9F124ECA1BB
:103E9000E53D27494E46494E4954594E414ECDCCF9
:103EA000CC3D0AD7233C17B7D13877CC2B32959528
:103EB000E6241FB14F0A000020410000C842004024
:103EC0001C4620BCBE4CCA1B0E5AAEC59D740D9438
:103ED00054040D94CC0F0D94D90E0D94EC090D944F
:103EE00001080D94C7130D94BB100D948B080D940D
:103EF000FE0A0D943C150D94CE040D945E0E0D94A7
:103F0000100F0D9467180D94DE100D9455020D944A
:103F1000820E0D94ED130D9410020D94440C0D942B
:103F2000C1130D9421020D9490130D94D4040D949B
:103F3000CA130D94BA070D94B0060D94AB080D94F6
:103F4000A9090D9485080D9476000D943E0F0D94EB
:103F5000AA060D9401170D94B5050D94BC0E0D9491
:103F6000420E0D9471030D94D9020D94010E0D941F
:103F7000540B0D94C8180D94CE050D943F050D9467
:103F80004F020D944E090D94D8080D94D8030D944A
:103F9000D30B0D94D3020D945A090D94040B0D9478
:103FA00016190D9461180D94F50E0D9450110D9481
:103FB00005070D9439050D94720F0D948F0C0D9417
:103FC000AF140D94210E0D94B31A0D94B8010D94F5
:103FD0004E0B0D945E0A0D9462170D94890C25A763
:103FE000A2B063BD6DC970C947CA79DD11241FBE77
:103FF000CFEFD1E2DEBFCDBF00E00CBF15E0A0E007
:10400000B2E0E0E3F0E502E00BBF02C007900D92E2
:10401000AE3FB107D9F711E1AEEFB5E001C01D9297
:10402000A637B107E1F71FE3CCEEDFE300E006C0FF
:1040300022970109FE010BBF0F94E423CE3DD10767
:1040400080E00807A9F70E9483A60D9416280C9417
:104050000000283008F027E03327DA01990F311DDE
:1040600087FD916000966105710539F432602E5F1D
:104070003D9330E32A95E1F708959F3F30F0803873
:104080007105610509F03C5F3C5F3D93913008F09C
:104090008068911DDF93CF931F930F93FF92EF9250
:1040A000192F987F9695E92F96959695E90FFF27FA
:1040B000ED50F24C99273327EE24FF24A701E701A6
:1040C00005900894079428F4360FE71EF81E491F40
:1040D000511D660F771F881F991F0694A1F7059041
:1040E000079428F4E70EF81E491F561FC11D770FCD
:1040F000881F991F661F0694A1F70590079428F45E
:10410000F80E491F561FC71FD11D880F991F661F24
:10411000771F0694A1F70590079420F4490F561FC6
:10412000C71FD81F990F661F771F881F0694A9F70E
:1041300084911095177041F0D695C795579547957E
:10414000F794E7941A95C1F7E9E9FDE368941590AF
:10415000159135916591959105907FE27395E118E0
:10416000F10A430B560BC90BD009C0F7E10CF11E45
:10417000431F561FC91FD01D7EF4703311F48A955A
:10418000E6CFE894015030F0080F0AF40027021738
:1041900008F4202F2395022F7A3328F079E37D93BA
:1041A0002A95E9F710C07D932A9589F6069497958C
:1041B0006795379517951794E118F10A430B560B3D
:1041C000C90BD00998F023957E9173957A3308F046
:1041D00070E37C932013B8F77E9170617D9330F08B
:1041E000839571E37D9370E32A95E1F71124EF90B5
:1041F000FF900F911F91CF91DF91992787FD9095A7
:104200000895FA01AA27283051F1203181F1E8946C
:104210006F936E7F6E5F7F4F8F4F9F4FAF4FB1E0B9
:104220003ED0B4E03CD0670F781F891F9A1FA11DB4
:10423000680F791F8A1F911DA11D6A0F711D811DB5
:10424000911DA11D20D009F468943F912AE0269F7A
:1042500011243019305D3193DEF6CF010895462FD9
:104260004770405D4193B3E00FD0C9F7F6CF462FBA
:104270004F70405D4A3318F0495D31FD4052419323
:1042800002D0A9F7EACFB4E0A695979587957795E0
:104290006795BA95C9F700976105710508959B0167
:1042A000AC010A2E06945795479537952795BA95F0
:1042B000C9F7620F731F841F951FA01D0895ACE2FC
:1042C000B0E0E5E6F1E20D94A72329833A834B831E
:1042D0005C836D837E838F839887A986BA86CB861D
:1042E000DC86ED86FE860F87188B69807A808B804E
:1042F0009C8069A27AA28BA29CA2840173018FEF99
:104300009FEFA0E0B0E0E822F9220A231B2314016A
:104310004424552469847A848B849C846DA27EA273
:104320008FA298A664015301A822B922CA22DB22D7
:10433000340188249924C601B501A80197010F947E
:10434000182369A77AA78BA79CA7C401B3010F9470
:1043500018237B018C01C601B501A20191010F94C4
:1043600018235B016C01C401B3010F9418239B0156
:10437000AC01EA0CFB1C0C1D1D1D69A47AA48BA4C6
:104380009CA4C401AA27BB27E80EF91E0A1F1B1F05
:10439000EA14FB040C051D0520F4205030404F4F5B
:1043A0005F4FC801AA27BB27820F931FA41FB51F09
:1043B0008D8F9E8FAF8FB8A38701FF24EE2429A590
:1043C0003AA54BA55CA540705070E20EF31E041F89
:1043D000151FE98EFA8E0B8F1C8FDE2CAA8CCB8CCE
:1043E0006C8C8D8B8E8D8E8B8F8D8F8B88A1888F13
:1043F0002D853E854F85588969A17AA18BA19CA105
:104400000F9418237B018C012D813E814F815885AB
:104410006DA17EA18FA198A50F941823E60EF71E1B
:10442000081F191F6D897E898F89988D6E0D7F1DDC
:10443000801F911F6D8B7E8B8F8B988F7E892D2D8A
:104440003A2D4C2D562D8F89988DAC96E2E10D9426
:10445000C3230F93DF93CF93CDB7DEB760970FB62B
:10446000F894DEBF0FBECDBF002309F459C02983E5
:104470003A834B835C836D837E838F839887E0E2EE
:10448000E01B29813A814B815C811E16BCF01986A4
:104490001A861B861C868E2F992787FD90959095EE
:1044A00081959F4F04C0220F331F441F551F8A95CB
:1044B000D2F72D873E874F87588B2AC0CA01B90192
:1044C000002E04C0660F771F881F991F0A94D2F729
:1044D00069877A878B879C87DA01C90104C0B69502
:1044E000A79597958795EA95D2F72D813E814F81C3
:1044F000588504C0220F331F441F551F0A95D2F759
:10450000822B932BA42BB52B8D879E87AF87B88BDF
:1045100029853A854B855C856D857E858F85988953
:1045200060960FB6F894DEBF0FBECDBFCF91DF917E
:104530000F910895A8E3B0E0E0EAF2E20D94A7231A
:1045400029833A834B835C836D837E838F83988733
:10455000A986BA86CB86DC86ED86FE860F87188B09
:10456000E984FA840B851C852D853E854F85588905
:1045700029803A804B805C802DA23EA24FA258A693
:10458000AD80BE80CF80D88421153105410551050D
:1045900009F0BEC3AE14BF04C006D10608F04FC177
:1045A00020E0E21620E0F20621E0020720E01207F8
:1045B00058F43FEFE316F1040105110509F090F4FA
:1045C00020E030E0A90117C040E0E41640E0F40626
:1045D00040E0040741E0140750F420E130E040E0FF
:1045E00050E009C028E030E040E050E004C028E19D
:1045F00030E040E050E0D801C701022E04C0B6957B
:10460000A795979587950A94D2F7825E9D4FDC0116
:104610006C9180E290E0A0E0B0E0821B930BA40BD1
:10462000B50B861B9109A109B1090097A105B10538
:10463000A1F1082E04C0EE0CFF1C001F111F0A94EC
:10464000D2F7A6019501082E04C0220F331F441F84
:10465000551F0A94D2F760E270E0681B790BADA099
:10466000BEA0CFA0D8A404C0D694C794B794A794F2
:104670006A95D2F7A22AB32AC42AD52A2DA03EA031
:104680004FA058A404C0220C331C441C551C8A950E
:10469000D2F72DA23EA24FA258A638018824992411
:1046A000A8019701407050702D8F3E8F4F8F58A3F7
:1046B000C601B501A40193010F946A23222E532E43
:1046C000442E352E69A37AA38BA39CA3C601B50102
:1046D000A40193010F946A23822D952DA42DB32D4F
:1046E000898F9A8FAB8FBC8FBC01CD012D8D3E8DF4
:1046F0004F8D58A10F9418235B016C0149A15AA159
:104700006BA17CA1DA01992788272DA03EA04FA09C
:1047100058A4920144275527822B932BA42BB52B09
:104720008A159B05AC05BD0530F5298D3A8D4B8D5D
:104730005C8D2150304040405040298F3A8F4B8F44
:104740005C8F8E0D9F1DA01FB11F8E159F05A007AA
:10475000B10788F08A159B05AC05BD0560F42150B2
:10476000304040405040298F3A8F4B8F5C8F8E0DE8
:104770009F1DA01FB11FAC01BD014A195B096C0947
:104780007D095A016B01CB01BA01A40193010F9479
:104790006A23222E532E442E352E69A37AA38BA38F
:1047A0009CA3C601B501A40193010F946A23A22C16
:1047B000B52CC42CD32CC601B5012D8D3E8D4F8D4B
:1047C00058A10F9418233B014C0169A17AA18BA138
:1047D0009CA1AB01332722278DA19EA1AFA1B8A533
:1047E000A070B070282B392B4A2B5B2B2615370570
:1047F00048055905C0F40894A108B108C108D108BA
:104800002E0D3F1D401F511F2E153F05400751071C
:1048100050F0261537054805590528F40894A108D5
:10482000B108C108D108898D9A8DAB8DBC8D8C01E2
:10483000FF24EE24EA28FB280C291D29B3C4E11427
:10484000F1040105110559F461E070E080E090E0A9
:10485000A80197010F946A2379018A0110C090E0A2
:10486000E91690E0F90691E0090790E0190758F47D
:10487000AFEFEA16F1040105110509F090F420E00C
:1048800030E0A90117C0B0E0EB16B0E0FB06B0E0E5
:104890000B07B1E01B0750F420E130E040E050E0AE
:1048A00009C028E030E040E050E004C028E130E0FA
:1048B00040E050E0D801C701022E04C0B695A7958C
:1048C000979587950A94D2F7825E9D4FFC0180816F
:1048D000280F311D411D511D80E290E0A0E0B0E0A5
:1048E000821B930BA40BB50B61F4150126012E1846
:1048F0003F08400A510A81E0A82EB12CC12CD12CCE
:1049000029C1082E04C0EE0CFF1C001F111F0A94C1
:10491000D2F715012601022E04C05694479437940D
:1049200027940A94D2F7298E3A8E4B8E5C8EB6016C
:10493000A501082E04C0440F551F661F771F0A9457
:10494000D2F74D8F5E8F6F8F78A32DA03EA04FA022
:1049500058A404C056944794379427942A95D2F7C4
:10496000AD8CBE8CCF8CD8A0A228B328C428D52863
:10497000AD8EBE8ECF8ED8A22DA13EA14FA158A53F
:1049800004C0220F331F441F551F8A95D2F72DA351
:104990003EA34FA358A7380188249924B801A70142
:1049A0006070707049A35AA36BA37CA3698D7A8D44
:1049B0008B8D9C8DA40193010F946A23222E532E7C
:1049C000442E352E69A77AA78BA79CA7698D7A8D6F
:1049D0008B8D9C8DA40193010F946A23A22CB52C7E
:1049E000C42CD32CA98EBA8ECB8EDC8EC601B50119
:1049F00029A13AA14BA15CA10F9418235B016C0182
:104A000029A43AA44BA45CA4D101992788272D8C12
:104A10003E8C4F8C58A0920144275527822B932B14
:104A2000A42BB52B8A159B05AC05BD0530F5298D4A
:104A30003A8D4B8D5C8D2150304040405040298F45
:104A40003A8F4B8F5C8F8E0D9F1DA01FB11F8E154F
:104A50009F05A007B10788F08A159B05AC05BD0529
:104A600060F42150304040405040298F3A8F4B8FA6
:104A70005C8F8E0D9F1DA01FB11FAC01BD014A1997
:104A80005B096C097D095A016B01CB01BA01A401D4
:104A900093010F946A23222E532E442E352E69A79C
:104AA0007AA78BA79CA7C601B501A40193010F9417
:104AB0006A23622C752C842C932CC401B30129A188
:104AC0003AA14BA15CA10F9418239B01AC0169A5ED
:104AD0007AA58BA59CA56B01BB24AA248D8D9E8DE8
:104AE000AF8DB8A1A070B070A82AB92ACA2ADB2A53
:104AF000A216B306C406D506E0F40894610871084E
:104B000081089108AE0CBF1CC01ED11EAE14BF049C
:104B1000C006D10670F0A216B306C406D50648F446
:104B200008946108710881089108AE0CBF1CC01E72
:104B3000D11E15012601221A330A440A550A898D0D
:104B40009A8DAB8DBC8D6C01BB24AA24A628B728F6
:104B5000C828D9289801442755272D8F3E8F4F8F7D
:104B600058A3B801A7016070707049A35AA36BA342
:104B70007CA3C201B1012D8D3E8D4F8D58A10F94A4
:104B80006A23622E932E842E752E69A77AA78BA78F
:104B90009CA7C201B1012D8D3E8D4F8D58A10F9460
:104BA0006A23862D992DA82DB72D898F9A8FAB8FCB
:104BB000BC8FBC01CD0129A13AA14BA15CA10F94EE
:104BC00018233B014C0129A43AA44BA45CA4D101B5
:104BD000992788272DA03EA04FA058A492014427D2
:104BE0005527822B932BA42BB52B86159705A8054B
:104BF000B90530F5298D3A8D4B8D5C8D21503040B3
:104C000040405040298F3A8F4B8F5C8F8E0D9F1DF7
:104C1000A01FB11F8E159F05A007B10788F086154C
:104C20009705A805B90560F4215030404040504038
:104C3000298F3A8F4B8F5C8F8E0D9F1DA01FB11F48
:104C4000AC01BD0146195709680979093A014B01C0
:104C5000CB01BA012D8D3E8D4F8D58A10F946A2343
:104C6000522E432E342E252E69A77AA78BA79CA7F8
:104C7000C401B3012D8D3E8D4F8D58A10F946A2331
:104C8000652C742C832C922CC401B30129A13AA168
:104C90004BA15CA10F9418231B012C0169A57AA5D7
:104CA0008BA59CA5AB01332722278DA19EA1AFA187
:104CB000B8A5A070B070282B392B4A2B5B2B22157E
:104CC000330544055505C0F408946108710881084E
:104CD00091082E0D3F1D401F511F2E153F05400707
:104CE000510750F0221533054405550528F4089462
:104CF0006108710881089108898D9A8DAB8DBC8DF2
:104D00008C01FF24EE24E628F728082919294DC232
:104D1000A216B306C406D50608F434C2203090E0CB
:104D2000390791E0490790E0590750F42F3F3105CA
:104D30004105510509F090F466247724430119C018
:104D40002030A0E03A07A0E04A07A1E05A0760F44B
:104D500090E1692E712C812C912C0BC088E0682E7B
:104D6000712C812C912C05C0B8E16B2E712C812CFB
:104D7000912CDA01C901062C04C0B695A795979528
:104D800087950A94D2F7825E9D4FFC018081680E60
:104D9000711C811C911C80E290E0A0E0B0E08619BB
:104DA0009709A809B90989F42A153B054C055D0541
:104DB00008F4EFC12DA03EA04FA058A42E143F042C
:104DC0004006510608F0E5C1DDC189A719012A0195
:104DD00004C0220C331C441C551C8A95D2F7D80100
:104DE000C701062C04C0B695A795979587950A9498
:104DF000D2F7282A392A4A2A5B2AA801970109A44E
:104E000004C0220F331F441F551F0A94D2F729AB49
:104E10003AAB4BAB5CAB86017501062C04C0169512
:104E20000795F794E7940A94D2F7B601A50109A46F
:104E300004C0440F551F661F771F0A94D2F74D8F89
:104E40005E8F6F8F78A36DA17EA18FA198A504C0FE
:104E500096958795779567956A94D2F73B014C01B3
:104E60008D8D9E8DAF8DB8A186299729A829B92946
:104E70008D8F9E8FAF8FB8A35201CC24DD24A9A2C1
:104E8000BAA2CBA2DCA2A2019101407050702DAB5E
:104E90003EAB4FAB58AFC801B701A60195010F94C7
:104EA0006A23622EA32ED42EC52E6DA77EA78FA7B0
:104EB00098ABC801B70129A13AA14BA15CA10F94FD
:104EC0006A23E62CFA2C0D2D1C2DE98EFA8E0B8F01
:104ED0001C8FC801B7012DA93EA94FA958AD0F9449
:104EE0001823ADA4BEA4CFA4D8A88501FF24EE2426
:104EF000AD8CBE8CCF8CD8A0960144275527E22AD2
:104F0000F32A042B152BE616F7060807190730F5C8
:104F1000298D3A8D4B8D5C8D215030404040504062
:104F2000298F3A8F4B8F5C8FE20CF31C041D151DEB
:104F3000E214F3040405150588F0E616F7060807E1
:104F4000190760F42150304040405040298F3A8F7B
:104F50004B8F5C8FE20CF31C041D151DE61AF70A3B
:104F6000080B190BC801B70129A13AA14BA15CA1FB
:104F70000F946A23A22ED32EC42EB52E6DA77EA722
:104F80008FA798ABC801B70129A13AA14BA15CA199
:104F90000F946A236A2C7D2C8C2C9B2CC401B301AA
:104FA0002DA93EA94FA958AD0F9418239B01AC0120
:104FB000ADA4BEA4CFA4D8A8D50199278827AD8CCD
:104FC000BE8CCF8CD8A06FEFE62E6FEFF62E012DA2
:104FD000112DAE20BF20C022D1228A299B29AC29C5
:104FE000BD2982179307A407B507E0F40894610868
:104FF000710881089108820D931DA41DB51D8215AD
:105000009305A405B50570F082179307A407B507AB
:1050100048F408946108710881089108820D931D75
:10502000A41DB51D1C012D01221A330A440A550A7C
:105030002D8E3E8E4F8E58A2A98CBA8CCB8CDC8CD8
:105040008501FF24EE24E628F72808291929AFEF67
:10505000AA2EAFEFBA2EC12CD12CAE20BF20C02279
:10506000D12218014424552469A87AA88BA89CA8A9
:105070002FEF3FEF40E050E062227322842295221E
:1050800069A97AA98BA99CA9AC0166277727498FC2
:105090005A8F6B8F7C8FC601B501A40193010F94C9
:1050A000182369A37AA38BA39CA3C601B501298DFC
:1050B0003A8D4B8D5C8D0F9418235B016C01C201FE
:1050C000B101A40193010F9418233B014C01C201CB
:1050D000B101298D3A8D4B8D5C8D0F9418239B0166
:1050E000AC01A60CB71CC81CD91C29A03AA04BA027
:1050F0005CA0C201AA27BB27A80EB91ECA1EDB1ED0
:10510000A614B704C804D90420F4205030404F4FEF
:105110005F4FC601AA27BB27820F931FA41FB51F8D
:105120002D8D3E8D4F8D58A1281739074A075B07F3
:1051300018F182179307A407B507A1F56501BB24F1
:10514000AA2489A19AA1ABA1BCA1A070B070A80E9D
:10515000B91ECA1EDB1E8DA19EA1AFA1B8A509A4D0
:1051600004C0880F991FAA1FBB1F0A94D2F78A1583
:105170009B05AC05BD05B0F40894E108F1080109F0
:10518000110910C0AA24BB246501EE24FF24870165
:105190000CC0AA24BB24650181E0E82EF12C012D6E
:1051A000112D03C0AA24BB246501FE01719688E07D
:1051B000DF011D928A95E9F7E98AFA8A0B8B1C8B2D
:1051C000AD8ABE8ACF8AD88E2E2D3A894B895C89CA
:1051D0006A2D7E898F89988DE896E2E10D94C3232C
:1051E000DC01D596ED91FC91D697EF5BFF4F9B9636
:1051F0008C919B97992787FD909591838083089543
:10520000CF93DF93FB01EC01AFA9B8ADCD91DC9159
:105210001197209749F0DE01A55BBF4F8D919C91BE
:1052200011978230910524F480E0DF91CF910895A9
:105230008A859B85AC85BD8587839087A187B2874A
:105240008E859F85A889B98983879487A587B68726
:1052500081E0EBCF20E030E0A901FC012083318325
:105260004283538324833583468357832087318742
:10527000428753870895FB01282F392FD901E75A18
:10528000FF4F2CE001900D922150E1F70895DC01D1
:10529000D5968D919C91D697DC01ED91FC9100847F
:1052A000F185E02D1995089520E030E0A901FC0179
:1052B00020833183428353832483358346835783FA
:1052C00020873187428753870895089560E070E012
:1052D000CB01089560E070E0CB010895009721F0C4
:1052E00081309105B1F405C0E0914E10F0914F105E
:1052F00004C0E0915010F0915110A081B181169638
:105300002D913C911797CF01F90119959C0197FFB9
:1053100002C020E030E0C90108958091DA06909142
:10532000DB06A091DC06B091DD068C362EEE9207EE
:105330002FEFA2072FEFB2071CF48FEF8093C80D59
:105340008091C80D882319F081508093C80D08956D
:105350008091420990914309A0914409B091450977
:10536000B7FF09C02091EC0C3091ED0C4091EE0C90
:105370005091EF0C0CC02091220D3091230D4091E3
:10538000240D5091250D280F391F4A1F5B1FB901AD
:10539000CA0108958091370F9091380FDC01ED918B
:1053A000FC916091220961500480F581E02D1995EE
:1053B0009C012F583340B4E02B393B07F0F49C019B
:1053C0002F5C344022383105D0F09C012155354006
:1053D00022383105B0F09C01235D3540223831057B
:1053E00090F09C01255536402138310570F026E0BB
:1053F000863D920760F085E008958FEF089581E083
:10540000089582E0089583E0089584E0089580E09F
:105410000895A8E0B0E0EFE0FAE20D94B123209106
:105420000909332727FD30952817390748F41982D1
:105430001A821B821C821D821E821F8218862CC02B
:105440008C0104511E4F83E0000F111F8A95E1F774
:105450008091310F9091320FDC01ED91FC9106802B
:10546000F781E02DB80119956B017C018091310F16
:105470009091320FDC01ED91FC91B8016C5F7F4F90
:105480000680F781E02D1995C982DA82EB82FC82D1
:105490006D837E838F83988729813A814B815C81DC
:1054A0006D817E818F8198852896E8E00D94CD23CB
:1054B000809108098823D1F0909109099530B4F0C2
:1054C0008230E9F060910A09662381F08091370FFC
:1054D0009091380FDC01ED91FC9161500480F581D1
:1054E000E02D1995B6E0863D9B0748F4E091470D05
:1054F000F091480D309729F0128280E0089581E004
:10550000089580E0089580912403909125038130CF
:10551000910519F0873091054CF18091730988232A
:1055200079F1C6DF882331F1E091470DF091480D04
:10553000309701F182818823E9F0809124039091D2
:1055400025038F309105B1F41BC080911A0988237F
:1055500079F081E04091B8095091B90920911B0977
:1055600030911C094217530724F40AC081E00895C2
:1055700081E008958091510E9091520E009729F389
:1055800080E00895EF92FF920F931F9380915A0944
:10559000882361F480E090E0DC01809326039093FF
:1055A0002703A0932803B093290397C0833011F0F9
:1055B000843051F58091430890914408DC01ED91CD
:1055C000FC910480F581E02D60917009199580911E
:1055D000430890914408DC01ED91FC910680F7812D
:1055E000E02D199520915F09309160094091610982
:1055F000509162090F945F226093260370932703F2
:10560000809328039093290380915A09843009F0EC
:1056100064C08091450890914608DC01ED91FC91B1
:105620000480F581E02D60917109199580914508FC
:1056300090914608DC01ED91FC910680F781E02D08
:105640001995209167093091680940916909509135
:105650006A090F94AD1E209163093091640940914D
:105660006509509166090F945F227B018C01762FAA
:10567000272F3F2D402F512F20932F0D3093300D8A
:105680004093310D5093320D60912E0D70E080E00B
:1056900090E00F945C209B01AC016E2D7F2D802F3C
:1056A000912F0F945F222FEA35EA41E959E30F94D5
:1056B0005F229B01AC016091330D7091340D80919C
:1056C000350D9091360D0F94AE1E6093330D70938F
:1056D000340D8093350D9093360D1F910F91FF90EF
:1056E000EF90089540912F095091300924E630E061
:1056F000429FC001439F900D529F900D1124AA27F5
:1057000097FDA095BA2F2091EC0C3091ED0C4091B3
:10571000EE0C5091EF0C281B390B4A0B5B0BB901B7
:10572000CA010895CF93DF93E091FE05F091FF0544
:1057300000D00F92A081B181CDB7DEB7FA83E983A3
:105740008EE796E19C838B835096ED91FC91519767
:1057500019950F900F900F900F90E091FE05F0912A
:10576000FF05A081B18118962D913C911997CF0129
:10577000F9011995EFEF8F3F9E0779F3893791056E
:1057800021F08935910509F048C0E091FE05F091BE
:10579000FF0500D00F92A081B181CDB7DEB7FA83AB
:1057A000E9838FED96E19C838B835096ED91FC917C
:1057B000519719950F900F900F900F90C0E0D0E087
:1057C0008091310F9091320FDC01ED91FC910284B8
:1057D000F385E02DBE0140E019952196B0E1C0307F
:1057E000DB0771F7E091FE05F091FF0500D00F9205
:1057F000A081B181CDB7DEB7FA83E98389ED96E167
:105800009C838B835096ED91FC91519719950F9045
:105810000F900F900F9080E001C08FEFDF91CF913C
:105820000895CF93DF93DC018091FE059091FF05F1
:105830002DB73EB7245130400FB6F8943EBF0FBE8F
:105840002DBFEDB7FEB73196EC0168817981CDB7F8
:10585000DEB79A8389838BE899E1938382832D91C4
:105860003D914D915C9113972483358346835783F3
:1058700014962D913D914D915C911797208731871A
:105880004287538718962D913D914D915C911B97BE
:1058900024873587468757871C968D919C911D9745
:1058A000AA2797FDA095BA2F808B918BA28BB38BE3
:1058B000DB015096ED91FC9151971995CDB7DEB76C
:1058C00064960FB6F894DEBF0FBECDBFDF91CF91C7
:1058D0000895CF93DF93E091FE05F091FF0500D08E
:1058E0000F92A081B181CDB7DEB7FA83E9838AE553
:1058F0009CE19C838B835096ED91FC915197199577
:105900000F900F900F900F90DF91CF910895CF934C
:10591000DF93E091FE05F091FF0500D00F92A0818A
:10592000B181CDB7DEB7FA83E9838DE195E19C8340
:105930008B835096ED91FC91519719950F900F9094
:105940000F900F9080E0DF91CF91089580913B0FF1
:1059500090913C0FDC01ED91FC91048CF58DE02DD4
:105960001995FFCFF3DF80E00895E82FF0E0ED30E8
:10597000F10508F062C0EE58FF4F8091FE0590914E
:10598000FF050D94DE23DC01ED91FC911197048459
:10599000F585E02D67EA74E15CC0DC01ED91FC91D6
:1059A00011970484F585E02D60EA74E152C0DC01B2
:1059B000ED91FC9111970484F585E02D66E974E181
:1059C00048C0DC01ED91FC9111970484F585E02D30
:1059D0006DE874E13EC0DC01ED91FC911197048407
:1059E000F585E02D67E874E134C0DC01ED91FC91B0
:1059F00011970484F585E02D61E874E12AC0DC018B
:105A0000ED91FC9111970484F585E02D6CE774E12C
:105A100020C0DC01ED91FC9111970484F585E02D07
:105A200068E774E116C0DC01ED91FC9111970484E4
:105A3000F585E02D61E774E10CC08091FE05909141
:105A4000FF05DC01ED91FC910484F585E02D6DE608
:105A500074E119950895A1E0B0E0E1E3FDE20D9451
:105A6000B523A091FE05B091FF0500D000D04DB741
:105A70005EB74F5F5F4F0D911C911197EDB7FEB769
:105A8000B283A18329E33AE1DA0113963C932E9382
:105A9000129714968C93149715961C92D8015096D1
:105AA000ED91FC91519769831995EDB7FEB7369644
:105AB0000FB6F894FEBF0FBEEDBF6981862F55DF8C
:105AC0002196E4E00D94D1231F93CF93DF93182FF9
:105AD000EB0180915809882371F4183038F5E12FD3
